:020000040000fa
:080000000002040000000000f2
:020000040000fa
:100008006e3700004e3700005237000056370000a8
:100018005a3700006e3700006e3700006e37000058
:100028006e3700006e3700006e3700006c2a000043
:10003800be0600006e3700006e3700006e37000005
:100048000c3000006e3700006e3700006e3700007d
:100058006e3700006e370000423700006e37000030
:100068006e370000723700006e370000e834000079
:100078006e3700006e3700006e3700006e370000e4
:10008800e62300006e3700006e3700006e37000070
:100098006e3700006e3700006e3700006e370000c4
:1000a8006e3700006e3700006e370000b82d000074
:1000b8006e3700006e3700006e3700006e370000a4
:1000c8006e3700006e3700006e3700006e37000094
:1000d8006e3700006e3700006e3700006e37000084
:1000e8006e3700006e3700006e3700006e37000074
:1000f8006e3700006e3700006e3700006e37000064
:100108006e3700006e370000263500006e3700009d
:100118006e3700006e3700006e3700008031000037
:100128006e3700006e3700006e3700006e37000033
:100138006e3700006e3700006e3700006e37000023
:100148006e3700006e3700006e3700006e37000013
:100158006e3700006e3700006e3700006e37000003
:100168006e3700006e3700006e3700006e370000f3
:100178006e3700006e3700006e3700006e370000e3
:100188006e3700006e3700006e3700006e370000d3
:100198006e3700006e3700006e3700006e370000c3
:1001a8006e3700006e3700006e3700006e370000b3
:1001b8006e3700006e3700006e3700006e370000a3
:1001c8006e3700006e3700006e3700006e37000093
:1001d8006e3700006e3700006e3700006e37000083
:1001e8006e3700006e3700006e3700006e37000073
:0801f8006e3700006e370000b5
:020000040000fa
:100208006e3700005e370000623700006637000076
:100218006a3700006e3700006e3700006e37000046
:100228006e3700006e3700006e3700006c2a000041
:10023800be0600006e3700006e3700006e37000003
:100248000c3000006e3700006e3700006e3700007b
:100258006e3700006e370000423700006e3700002e
:100268006e370000723700006e370000e834000077
:100278006e3700006e3700006e3700006e370000e2
:10028800e62300006e3700006e3700006e3700006e
:100298006e3700006e3700006e3700006e370000c2
:1002a8006e3700006e3700006e370000b82d000072
:1002b8006e3700006e3700006e3700006e370000a2
:1002c8006e3700006e3700006e3700006e37000092
:1002d8006e3700006e3700006e3700006e37000082
:1002e8006e3700006e3700006e3700006e37000072
:1002f8006e3700006e3700006e3700006e37000062
:100308006e3700006e370000263500006e3700009b
:100318006e3700006e3700006e3700008031000035
:100328006e3700006e3700006e3700006e37000031
:100338006e3700006e3700006e3700006e37000021
:100348006e3700006e3700006e3700006e37000011
:100358006e3700006e3700006e3700006e37000001
:100368006e3700006e3700006e3700006e370000f1
:100378006e3700006e3700006e3700006e370000e1
:100388006e3700006e3700006e3700006e370000d1
:100398006e3700006e3700006e3700006e370000c1
:1003a8006e3700006e3700006e3700006e370000b1
:1003b8006e3700006e3700006e3700006e370000a1
:1003c8006e3700006e3700006e3700006e37000091
:1003d8006e3700006e3700006e3700006e37000081
:1003e8006e3700006e3700006e3700006e37000071
:0803f8006e3700006e370000b3
:020000040000fa
:100400000fc920000e6d24000e01880000000000be
:10041000000020000000e000020032000001200087
:10042000200288000c000700803f2100010020000e
:1004300011000700000020000000e0000200320070
:1004400000000200000000003c1602000000000056
:100450000040da000000fe004440a90040082000ef
:100460000000e0000300320000002000a00188002e
:100470004440a80000000600910188008000780038
:100480000000eb0015003700e280400032a0b4000d
:100490009101ba00e280400032a0b4009102ba009b
:1004a000e280400032a0b4000002eb00472bde00e7
:1004b000f507b200602ce10004003a000059eb009f
:1004c0008301e900fdff3e00040037006128e100e0
:1004d000010032000082eb00040007001101ba00a5
:1004e0000200e000e8ff3a00000006003159ba00bf
:1004f0008301e9000c0032002159ba008301e900b0
:10050000080032000400e00003003a00e2804000ee
:1005100032a0b400f5ff370011d9ba008301e90019
:10052000faff3a008100e800e180400032a0b40008
:1005300000000600f62b0400000000000021ef0080
:100540001108880020088800000006000a21ef003a
:100550007108880090088800000006001421ef0050
:10056000d1088800f00888001e61a900000006007c
:1005700000088800000006005008880000000600ff
:10058000a008880000000600c008880000000600df
:100590003200f800023b8800910188000008bb008f
:1005a0000500fc0051052000313b8800a10a200015
:1005b000313b880061e7a800000000000000000057
:1005c0003200f900000006000400a100010037001d
:1005d0000400a0003200f8009101880011002400fe
:1005e000013b8800f10f20003208bb000400a70087
:1005f000b20078000198bb008301e900faff3a00dd
:10060000680151000400a700680151006800500013
:100610001208bb00e2ff3700f30f20003200f800a1
:100620009101880031002400013b88000208bb00d2
:100630000388bb00daff37003200f800003b880077
:10064000d7ff37003200f80091018800800278005f
:1006500062004000e08048003549ba003204e00002
:100660000410a700100032008301e9000e003200e0
:100670002549ba003204e0000410a7000a00320045
:100680008301e900080032000408a300eeff3200f5
:1006900015c9ba003204e0000410a70002003200bd
:1006a0008301e900e8ff3a003200f900000006008b
:1006b000889fbe008a9fbe008c1f7800b000070094
:1006c000b700330003866c006450e1002e00320056
:1006d0006420e100330032006150e1002f0032005d
:1006e0006120e1003100320085855500eb07b00044
:1006f0000900200008042000050037000804440019
:1007000089844c000a0031000603430087834b00b4
:100710000001530081815b00f8ff33000203be003b
:100720000800a0000804440089844c00f6ff39004a
:10073000c639dd0083017300010032001300200080
:100740008904d1000884d3000998a3000500320071
:100750000800a7000300a0008904d1000884d3008a
:100760008b05e8008904d1000884d3000001eb0068
:100770000281d2004700070001f0a1000cf0a700a1
:1007800001f0a0008f0037006420e10091003200ea
:100790000801be000200be00f7ff37006120e10043
:1007a0008c0032006000b800f3ff3700000020002a
:1007b00001f82700f0ff3700839f68000100e00088
:1007c00002003d0060001000e08018000300e0001f
:1007d00002003d0060011100e0811900b400070033
:1007e0004f00e00002003b0060001000e0801800b5
:1007f0000000060014002000bd003700f4ff2f00a9
:10080000bb0037000001be00480007000470a700cd
:1008100003f0a1006509b100160032000d0035009b
:100820006828e10006003500f0ff2f00f1ff2700e7
:100830000300e00013003b00010028000000050059
:1008400000004000818048008502e900fcff3a007a
:1008500008003700f88f420002003c008000eb00e7
:10086000000005008100d1000080d3008502e8006f
:10087000fcff3a000300e00002003b0060001000b3
:10088000e0801800000006004f89de008201780039
:10089000b200370081002000618055000b003d0050
:1008a0000b00200061fe2f000100e1001d0034005c
:1008b00082817100610164008904d1000884d30041
:1008c0000000e800faff3a007100200061006400b7
:1008d000030070000200600009003200610444005f
:1008e000e0844c000988a500050032008b05e80073
:1008f0006808e10002003a008904d1000884d300ae
:10090000f20f20000258e10005003d00c75ddd0048
:10091000f907b20089807500080078000000060021
:100920000bf827008b00780000000500c70ade00e6
:10093000f107b200f50fb20008003200e1cf42002b
:10094000020032000170a00024000500810f700039
:10095000010032000408050044000500810f70000a
:1009600002003a00140005008502e9000000400082
:1009700081c04800fcff3b000170a000240005007e
:100980000004be00e9ff07000003be000405be002e
:100990000200be00e5ff0700844f7500000006005e
:1009a0000200be006450e100050036006420e10052
:1009b000020036000968a30001003a000800be00ea
:1009c0000160a0004f0678004f05be004f04be0036
:1009d00000000600f0ff2f00f1ff2700f9ff3700ad
:1009e000889fbe008a9fbe008c1f7800e4ff07002e
:1009f000ebff330003866c006450e10024003200fa
:100a00006420e100270032006150e1002200320042
:100a10006120e100210032008b854200eb07b1002c
:100a20000134b800003ab8000804420089844a0042
:100a3000013ab8000030b8008880400009014a003f
:100a4000040033000000400081804800020149009a
:100a50008b05e900c909dd00830170000100320047
:100a600013002000c814de004814dd004709de0032
:100a70001200b200c808de000884700085ff07007d
:100a800001f0a1000cf0a70001f0a000cdff37009d
:100a90006120e100cfff32000801be000200be006d
:100aa000f7ff37006150e100fcff3a00c9ff370053
:100ab0006022b800060220000000d0008180d20031
:100ac0000482d2008582d2000000a00002025200ff
:100ad00083825a00030031000202420083824a00ee
:100ae0000000a1000603e900f3ff3a000000060041
:100af000889fbe008a9fbe00841f7800a0ff070069
:100b00004f00780011003300f0ff2f00838f6c003e
:100b100006003b00040565000a00a7000800370036
:100b200009f0a6001000200008003700820f5400d2
:100b3000838f5c00030039001000200001003e009c
:100b40000000200009f0a7000000ea004f05be00e9
:100b50004f04be000000e00000000600881f78007f
:100b6000030478000300e00007003d00600010006f
:100b7000e080180060011900e081190002003b00cc
:100b800001f02d00030037000400070008f0a70063
:100b900001f0a0004f04780000000600889fbe000e
:100ba0008a9fbe00008270000402710004827100fe
:100bb000260032000004be000200be006011b80032
:100bc0006b092000950220000182cf000a00390045
:100bd0000541b1000082cf00070039000541b10096
:100be0000982cf00040039000541b1000882cf001e
:100bf000010039000541b1000542520012003200e7
:100c00000a003b0082817100610164008100d10013
:100c10000080d3008984d3000884d3008b05e800ca
:100c20000442e800f7ff3a000700370008044400d8
:100c300089844c0000004800818048008b05e90051
:100c40000442e900f9ff3a0012ff07004f05be0019
:100c50004f04be00000006000002780002003700ca
:100c6000315a78000201e900e00f5100fcff3a0020
:040c7000000006007a
:020000040000fa
:100c7400000600000201000004050000030000005b
:100c8400000000004a01000094020000de0300009e
:100c94002705000070060000b907000001090000e4
:100ca400480a00008f0b0000d50c0000190e00004c
:100cb4005d0f00009f100000e011000020130000f1
:100cc4005e1400009b150000d61600000f180000eb
:100cd400461900007b1a0000af1b0000e01c000056
:100ce4000e1e00003b1f0000652000008c21000048
:100cf400b1220000d3230000f3240000ff7f000092
:100d0400fb7f0000ec7f0000d37f0000b07f000079
:100d1400837f00004c7f00000b7f0000c17e000039
:100d24006c7e00000e7e0000a57d0000337d000077
:100d3400b87c0000327c0000a37b00000a7b00002a
:100d4400687a0000bc79000006790000477800004a
:100d54007f770000ad760000d3750000ef740000cb
:100d6400017400000b7300000c7200000471000099
:080d7400f36f0000d96e0000ce
:020000040000fa
:100d7c003600f800809fbe00829fbe00849fbe009c
:100d8c00869fbe00889fbe008a9fbe008c1f780085
:100d9c000400fa00440f20002402880075538000e0
:100dac00066e2400968252003400200011000900c7
:100dbc008402d80080027800055488001600900048
:100dcc00720ab500110009000400d80020548800f4
:100ddc008502ea000080520010548800c4a920004b
:100dec0014427800614262008004eb000b00320078
:100dfc0084a1200014427800e04f5200040032001d
:100e0c00e0a32000cb090700800478000300370022
:100e1c00621607008004780029538800dc10070054
:100e2c0000457800c4a92000144278006242620098
:100e3c0005003200631107000082fb00a563280047
:100e4c0065447a0004003700c80320001100090033
:100e5c008804d8000044e80074ab200014427800e9
:100e6c00884f5200c2003200c4a9200014427800fe
:100e7c00704262000f0032000118070084a12000ac
:100e8c0014427800e04f52000a003a00d45f800010
:100e9c00800f520006003a0064ab20001442780028
:100eac00884f520003003200646ca8000100370028
:100ebc00d05f8800c4a9200014427800614262000f
:100ecc004a003200c4a92000144278006242620039
:100edc0046003200ea170700c45f8000800f520002
:100eec0006003a0064ab200014427800884f520090
:100efc0003003200646ca80001003700c05f88005a
:100f0c00e14f540013003a0074ab200014427800f7
:100f1c00e64f52000f003a007e824400c455880010
:100f2c0075162000850f5200ae03340064eb2f00c1
:100f3c0009024200c455880062c0b30061ab2000b6
:100f4c008248780015c0b30073ab20008549780047
:100f5c003a003700e64f540011003a0074ab200001
:100f6c0014427800e14f52000d003a007e8254008a
:100f7c00c4558800a2033b00a414200009024200bf
:100f8c00c455880017c0b30066ab2000074b78002f
:100f9c0061c0b30070ab20000148780068003700d6
:100fac0074ab200014427800844f540009003400c4
:100fbc007e824400c455880075162000850f5200af
:100fcc000a00340064eb2f0009024200c45588006b
:100fdc00060037007e825400c455880003003b0095
:100fec00a414200009024200c455880072ab2000f2
:100ffc001241780063ab20008249780074ab20006a
:10100c00084a78000802fb00cfa2de006102520001
:10101c00e0825a00e50f5200e08f5a0054003e0067
:10102c000460010005003700110037001d00370077
:10103c0029003700350037004100370004a8200094
:10104c00f455880044ac20005456880024a8200095
:10105c00e455880024ac20004456880044a82000a5
:10106c00d455880004ac200034568800400037006a
:10107c0004a82000f455880044ac20005456880085
:10108c0044a82000e455880004ac20004456880095
:10109c0024a82000d455880024ac200034568800a5
:1010ac003300370024a82000f455880024ac20001d
:1010bc005456880044a82000e455880004ac200055
:1010cc004456880004a82000d455880044ac200065
:1010dc00345688002600370024a82000f4558800d8
:1010ec0024ac20005456880004a82000e455880045
:1010fc0044ac20004456880044a82000d4558800f5
:10110c0004ac2000345688001900370044a8200095
:10111c00f455880004ac20005456880004a8200024
:10112c00e455880044ac20004456880024a82000d4
:10113c00d455880024ac2000345688000c003700ad
:10114c0044a82000f455880004ac200054568800b4
:10115c0024a82000e455880024ac200044568800c4
:10116c0004a82000d455880044ac200034568800d4
:10117c000804fb0024002000110009000404d8001e
:10118c0001467800c4a92000144278006242620033
:10119c0017003200c5a9200095427800e1c2620018
:1011ac000002eb0020003200c45580000482540081
:1011bc00350b2000850f5200020034008416b1005c
:1011cc0004003700c5f42f00850f520001003d00cc
:1011dc008416b000fe0f420001003d0024fe2f00db
:1011ec00fe0f520006003400e4012000040037001a
:1011fc00c4032000110009008404d8007e82500032
:10120c00e00f520008003d000402ea000402420014
:10121c0005682800e5047a002564280065047a0036
:10122c000804ea00050037000402420005682800a3
:10123c00e5047a002564280065047a00e04f560026
:10124c0028003200f5558000e45580001503780025
:10125c00140053000980b900d6558000960378001d
:10126c0008b9b900c11bdd004f11de00028173000b
:10127c00cf99de00e2bf9f00f3bf9f00d3ff2f008a
:10128c00efbb970003b9b900c10bdd004f00de00c6
:10129c0000807300cf88de00800341002755880052
:1012ac001603780009b3b900950278001482520035
:1012bc0008a2b9004138dd004f33de000603700090
:1012cc00cfbbde000603ea00c128dd004f22de00a2
:1012dc0004827000cfaade0004025300345588004b
:1012ec0022003700f5558000e45580001501780088
:1012fc00140051000980b900d65580001601780001
:10130c000891b900c11bdd004f11de000281730092
:10131c00cf99de006311b900c10bdd004f00de0078
:10132c0000807300cf88de008003410027558800c1
:10133c001603780009b3b9009502780014825200a4
:10134c0008a2b9004138dd004f33de0006037000ff
:10135c00cfbbde00c128dd004f22de00048270000e
:10136c00cfaade00040253003455880084a120006b
:10137c0014427800e04f5200c0003a00e4be200056
:10138c00144278006a425200e14f52008b003e003a
:10139c00e04f5500b90032001555800064508000b4
:1013ac0004825200e5be200095427800ebcf52003b
:1013bc0054003a00025280000052800000004200ab
:1013cc00cf80de00165280002752800006004000bd
:1013dc008780480002015200cf91de00441bdd00e3
:1013ec00cc13de00870373004413dd0000014300bf
:1013fc0081814b00125288002352880030518000aa
:10140c001652800027528000cf80de00860f5000dd
:10141c00878f580005003d0036518000cfb3de00a9
:10142c0016528800275288000d003700305180007a
:10143c0016528000275280000000ea00cf80de00a8
:10144c00860f5000878f580005003400260aee00e6
:10145c0000037800cfb3de001652880027528800b4
:10146c0085c0200095427800e0cf52002100320068
:10147c001652800027528000e00f5300e08f5b0073
:10148c000e003400f051800016528000275280006c
:10149c00cf80de00860f5000878f580002003d0081
:1014ac003e2aec0043003700165280002752800081
:1014bc00f6518800086cef003e003700f0518000b8
:1014cc001652800027528000cf80de00860f50001d
:1014dc00878f5800020034003e2aed00350037009b
:1014ec001652800027528000f6518800086cef00dd
:1014fc00300037001652800027528000f6518800c9
:10150c002c003700905f80000252800002015200d4
:10151c000091b900a55f80000052800000004200dd
:10152c000580b900d6518000e751800002004000d0
:10153c00838048000001430081814b00d251880018
:10154c00e3518800d0518000e1518000e6528000c8
:10155c00f7528000860f5000878f5800050034002a
:10156c00e6528000f7528000d6518800e75188007f
:10157c000f003700e0528000f1528000d6518000fd
:10158c00e751800060001000e0801800860f5000ca
:10159c00878f580006003400e6528000f752800016
:1015ac0060031300e0831b00d6518800e7518800cc
:1015bc003e2aef000452880030003700e4be2000c1
:1015cc0014427800e64f520013003a003a2aef001a
:1015dc003c2aef00a00af8003e0af900f551800001
:1015ec0034518000848f520003003400260af80026
:1015fc003e0af9002100370035518000f45180007b
:10160c008502ea00848f52001c003400260aee008a
:10161c00f051880019003700e5be20009542780093
:10162c0004c5b30084cf520011003a00f654800078
:10163c0065a5200095427800cfb3de008502fb0043
:10164c00e58252000600be00050178000201e900a7
:10165c00030033000000400081804800fbff37008e
:10166c00d0518800e15188003e2aef00030037007a
:10167c003a2aef003c2aef003e2aef00e4be20009d
:10168c0014427800eb4f520008003200e4be2000f8
:10169c0014427800e64f52000400320084a120006e
:1016ac0014427800e04f52003a003200f5518000ad
:1016bc0024558000048252009252800035528000e2
:1016cc008502520002a9b900a05280003552800058
:1016dc008502420000a8b900765180008751800035
:1016ec0002004000838048000001430081814b00d0
:1016fc0072518800835188003452880076518000e2
:10170c0087518000c4528000d5528000840f530052
:10171c00858f5b0005003400c4528000d5528000d8
:10172c0074518800855188000f003700c652800024
:10173c00d7528000745180008551800060031300e3
:10174c00e0831b00840f5300858f5b000600340080
:10175c00c4528000d552800060021200e0821a0050
:10176c0074518800855188007a5180008b5180001b
:10177c0064a52000144278000402fb000402e90076
:10178c00030033008b85d1000a85d300fbff3700a3
:10179c007c0037002555800034518000848f520026
:1017ac000300340014002000545288000500370058
:1017bc0024558000260aee00800f520001003d00e7
:1017cc004aaaef0054528000e00f5200530032003e
:1017dc0054528000e10f52001f003a003551800036
:1017ec0024558000048252009052800032528000b6
:1017fc00020152000091b900a552800030528000c5
:10180c00000042000580b90096518000a75180006d
:10181c0002004000838048000001430081814b009e
:10182c0092518800a3518800345288009451800052
:10183c00a5518000e00f5200e08f5a0028003500bf
:10184c00322aef00342aef000002eb0054528800d9
:10185c00345288002200370054528000e10f4200bd
:10186c001f003a0035518000245580008502ea00a3
:10187c0004825200905280003252800002015200c9
:10188c000091b900a5528000305280000000420047
:10189c000580b90096518000a751800002004000dd
:1018ac00838048000001430081814b0092518800e5
:1018bc00a35188003452880094518000a5518000b7
:1018cc00e00f5200e08f5a0005003c00322aef0076
:1018dc00342aef000002eb00545288003452880086
:1018ec00d6518000e75180009a518000ab518000a6
:1018fc0064a52000144278000a0543008b854b0038
:10190c000402fb000402e900030033008b85d100c4
:10191c000a85d300fbff37001a003700e5be200014
:10192c009542780004c5b30084cf52000b003a00f6
:10193c00da518000eb51800064a52000144278003d
:10194c000402fb000402e900030033008b85d10084
:10195c000a85d300fbff37000a003700da518000fc
:10196c00eb51800064bf2000144278000402fb009d
:10197c000402e900030033008b85d1000a85d300f3
:10198c00fbff3700a60aee00965280004252800000
:10199c00020150000691b900a4528000465280000a
:1019ac000603400004b3b900b4518000c551800057
:1019bc000203430083834b000601420087814a00e7
:1019cc00b2518800c351880040528800b651800043
:1019dc00c7518000c4528000d5528000840f530040
:1019ec00858f5b0005003400c4528000d552800006
:1019fc00b4518800c55188000f003700c6528000d2
:101a0c00d7528000b4518000c55180006003130090
:101a1c00e0831b00840f5300858f5b0006003400ad
:101a2c00c4528000d552800060021200e0821a007d
:101a3c00b4518800c5518800b6518000c751800050
:101a4c0065a52000954278008502fb000600be00cb
:101a5c00050178000201e900030033008180d10008
:101a6c000080d300fbff37008005780024032000a2
:101a7c00f7ff270016032000050037000402e900d9
:101a8c0003003a008aeca800be13070007003700d9
:101a9c00150e8000e08f520004003d00130e8000f4
:101aac0083826300868f5200f4ff3600845f8000cf
:101abc00e00f520006003400f02bed00845f800034
:101acc00e00f520002003a00892ca800ad13070069
:101adc002555800024608000848f520006003c0055
:101aec00000cf800fc0bf90004608800a40af80054
:101afc00040cf9000e0037002555800004608000ae
:101b0c00848f520004003c00e45f8800a40af800b3
:101b1c00000cf9000600370025558000e45f8000ba
:101b2c00848f520002003c00a40af800fc0bf90060
:101b3c002555800034608000848f520006003500eb
:101b4c00020cf800fe0bf90014608800a40af800df
:101b5c00060cf9000e00370025558000146080003b
:101b6c00848f520004003500f45f8800a40af8004a
:101b7c00020cf9000600370025558000f45f800048
:101b8c00848f520002003500a40af800fe0bf90005
:101b9c004552dd00cfa2de0096558000a75580008f
:101bac000603420087834a0096558800a755880093
:101bbc0024558000cfa2de0076558000875580002a
:101bcc000402430085824b007455880085558800bb
:101bdc00ac4aec00aceab700f44f500025003a00d8
:101bec00ac6aef0020608000060cb4000660800038
:101bfc00060040001660800006004000e65f800092
:101c0c0006004000f65f800006004000cf80de003a
:101c1c000003520081835a00e400200011000900e7
:101c2c00443bd80050538800460120009455800056
:101c3c00a555800011000900462ad80040538800a1
:101c4c006022b80094558800a5558800745588000a
:101c5c008555880004002800f45f88001460880013
:101c6c00346088000402e900e45f880004608800a6
:101c7c002460880009d3b90008d8b9004109dd00f7
:101c8c004f00de0000007100cf88de00d5ff2f0072
:101c9c000582b900c139dd004f33de0006837100c7
:101cac00cfbbde000602420008d0b90009dbb90048
:101cbc00c13add004f33de0006837200cfbbde007d
:101ccc00cf8cde004109dd004f04de0008047100fa
:101cdc0008044300e04f5600010032000804ea00fb
:101cec0055568000880a520035568000880a4400f8
:101cfc000402ea0045568000880a52000256800011
:101d0c0011568000205680007a0b0700c4a92000d1
:101d1c00144278006442620027003a005455800057
:101d2c000402e80054558800f30f520022003400de
:101d3c00aa2aef00205580002455800000a0b9008d
:101d4c001651800027518000f4508000055180000e
:101d5c000603500087835800c639dd004a33de0085
:101d6c0006837100cabbde000600420087804a0071
:101d7c00f050880001518800f4508000055180001b
:101d8c00e00f5200e08f5a0002003d001e2aef00c7
:101d9c00202aef00f650800007518000d4508000bc
:101dac00e5508000840f5300858f5b0002003400e7
:101dbc008a2ca800f31207008480a9000080fa0086
:101dcc004f0678004f05be004f04be004f03be0007
:101ddc004f02be004f01be004f00be003600f9009e
:101dec000040060071ab20009140780062ab2000ef
:101dfc000149780073ab2000884978008ffc3700cc
:101e0c0075ab20009542780066ab2000054b78003e
:0c1e1c0077ab2000884b7800c9fc370031
:020000040000fa
:101e2800e6874700889fbe008a9fbe008c9fbe0041
:101e38008e1f7800104278008049eb00e94f52006d
:101e48000b003a008002eb00e2cf50005f023a003c
:101e5800c4c2200014427800e04f52005b023200f6
:101e68001040900073130700150020005702370038
:101e7800e74f52000b003a008002eb00e1cf500020
:101e880052023a0004497800e1be200091407800ef
:101e98001141980024c0b30084497800150020003f
:101ea8004a02370035c3b300854f52000c003a0090
:101eb8008002eb00e1cf500044023a0034c3b30083
:101ec80004497800d4c220001442780014419800d4
:101ed80024c0b30084497800150020003b02370075
:101ee80025c3b300854f52003a003a008002eb0048
:101ef800e2cf500035023a00e4be200014427800d8
:101f0800e04f520005003200e6be2000164378007c
:101f180004cbb300844f53002c023a0010409000c9
:101f28002decb700d31307002dccbf00760f0700a8
:101f38000002eb008304200022b7200000002500e7
:101f480011002000bdf9070022042400000025002c
:101f5800110020008cf90700d4c220001442780038
:101f68000482fb0005002000945b8800a55b8800c4
:101f780016c0b30025bb2000864a7800b36bef007b
:101f8800c4aa2c00a45d88000204200021b7200008
:101f98000080eb00ba1207006102b800b45d880047
:101fa800c55d88000304200022b72000000025003a
:101fb8001100200082f907000304200022bb200042
:101fc80000042500110020007df9070015002000fd
:101fd800fe01370085c4b300854f520029003a003e
:101fe800c4c22000144278008002eb00e04f520087
:101ff800f6013200e5cf50000d003a00a0409000f5
:10200800c808dd00104290000482fb0081027200c3
:1020180024002000110009008402d80002e22400f4
:1020280085007800eb10070015002000e701370055
:102038008002eb00e8cf5000e4013a0070419000c4
:102048004811dd00604290000482fb00020172002a
:10205800d0409000c808dd00404290000482fb0098
:1020680081007200b0429000c82add002042900032
:102078000482fb0005007200d6100700150020003e
:10208800d201370095c7b300854f52000f003a00c0
:10209800c4c22000144278008002eb00e04f5200d6
:1020a800ca013200e3cf5000c8013a00a0429000b4
:1020b800c82add00104290000482fb00050072006f
:1020c8005813070015002000c001370075c7b3007a
:1020d800854f52003a003a008002eb00e6cf5000ec
:1020e800ba013600c4c2200014427800e04f520002
:1020f800b6013200104290000482fb00c5a92000fe
:102108009542780004437800c5a92000864a7800e3
:10211800d4a92000144278009d6aef002042900064
:102128000482fb00b0429000c82add0085027200dc
:10213800a5638800404290000482fb00d0429000d2
:10214800c82add0085027200b563880060429000ed
:102158000482fb000402d10004437800c5c72000b4
:10216800864a7800b4638000e10f420005003a0017
:102178009ccaa80016c0b300d5c72000864a7800bc
:10218800020037009ccaa9007d6cef0044022000c1
:10219800e8cf500002003a00704290000482fb0031
:1021a800d4638800c4a92000144278006142620008
:1021b80015002000850132009c8aa90083013700a0
:1021c800b5c5b300854f520024003a008002eb00e9
:1021d800e3cf50007d013a002043900090429000e8
:1021e8000002eb00e1cf520004003a0066c0b200e2
:1021f8000682fb000402e9004f22de0084427800d8
:10220800c1c220008548780084c0b30084497800a2
:10221800b5c5b300054978001441980034c0b3002f
:10222800244198003441980064c2b30044419800a6
:1022380014c0b3005441980064c0b30064419800ce
:10224800c6c220001643780076419800c4c2200018
:1022580014427800150020005c01370055c6b30011
:10226800854f52006a003a00c4c220001442780028
:102278008002eb00e04f520054013200e8cf5000da
:102288000e003a0070419000c0409000c808dd0080
:10229800304290000482fb0081007200a04290004e
:1022a800c82add00104290000482fb00050072007d
:1022b8004e11070015002000440137008002eb0092
:1022c800e6cf500041013a0010429000e14f520021
:1022d800040032008002eb00e24f52003b013a005a
:1022e8000500370010029000a0029000d461880019
:1022f800e56188000400370010029000a0029000f9
:10230800b4618800c5618800d4618000e5618000ff
:10231800f4b79f0085bf9f00bc618000cd6180003d
:102328000401be000c00be0032f90700e00f5000a7
:1023380003003c007fb597008fbd97000100370070
:102348000c05be000200200003f823000a00be00ae
:1023580026f90700e00f50000c0035001e00200091
:10236800150020000e28dd00cf80de0044f90700ac
:102378000004be000001be000a00be001bf90700f1
:10238800e00f50001d003d0003003700080020004a
:1023980009f823000007eb00f4c0b3000e47520011
:1023a80002002000037024000c00be008af9070018
:1023b8000801be00bcf8070010f907000005be00c0
:1023c80002002000037024007fb097008fb89700a8
:1023d80081f907000801be00b3f8070007f90700f4
:1023e8000002be000e4178008a00780004007800e0
:1023f800fe10070015002000f40037000e07e80063
:10240800f00f5700d6ff3a008002eb00ef003700cc
:1024180095c6b300854f52006a003a00c4c2200036
:10242800144278008002eb00e04f5200e7003200cf
:10243800e8cf50000e003a0070419000c040900074
:10244800c808dd00304290000482fb008100720061
:10245800a0429000c82add00104290000482fb00d0
:1024680005007200f310070015002000d7003700a0
:102478008002eb00e6cf5000d4003a0010429000f2
:10248800e14f5200040032008002eb00e24f52009c
:10249800ce003a000500370010029000a00290001c
:1024a80094618800a561880004003700100290003c
:1024b800a0029000746188008561880094618000a2
:1024c800a5618000f4b79f0085bf9f007c618000f4
:1024d8008d6180000401be000c00be00c5f8070035
:1024e800e00f500003003c007fb597008fbd9700b8
:1024f800010037000c05be000200200003f823008d
:102508000a00be00b9f80700e00f50000c003500c3
:102518001e002000150020000e28dd00cf80de0000
:10252800d7f807000004be000001be000a00be0084
:10253800aef80700e00f50001d003d000300370013
:102548000800200009f823000007eb00f4c0b300de
:102558000e47520002002000037024000c00be0049
:102568001df907000801be004ff80700a3f807008f
:102578000005be0002002000037024007fb0970011
:102588008fb8970014f907000801be0046f8070045
:102598009af807000002be000e4178008a00780011
:1025a80004007800a31007001500200087003700fa
:1025b8000e07e800f00f5700d6ff3a008002eb0044
:1025c80082003700f74f52001b003a008002eb00f0
:1025d800e5cf50007d003a00c4c2200014427800c4
:1025e800e04f520079003200e4be20001442780027
:1025f8006a425200e14f520074003e00a04290002f
:10260800c82add00104290000482fb000502720017
:1026180014558800145580001655800015002000b8
:1026280004002800840f530068003a000402e80000
:10263800145588006500370025c7b300854f520040
:1026480020003a008002eb00e3cf50005f003a0020
:10265800c4c2200014427800e04f52005b003200f0
:10266800e6be20001643780004c5b300844f53002b
:1026780056003a00a0429000c82add00104290009f
:102688000482fb0005027200f4548800f5548000af
:1026980004402600848f520003003400f45488005c
:1026a8001500200049003700f6548000150020006e
:1026b80004c02900840f530044003d00f4548800ee
:1026c80042003700d5c6b300854f520021003a00ba
:1026d8008002eb00e5cf50003c003a00c4c2200065
:1026e80014427800e04f520038003200e4be200067
:1026f80014427800e64f520034003a00a04290009d
:10270800c82add00104290000482fb000502720016
:10271800045588000555800034518000848f52008c
:1027280004003400260af800a00af9001500200069
:102738002600370004558000260aee001500200008
:10274800800f520021003d00260aee000055880047
:102758001e003700e5c6b300854f520013003a004b
:102768008002eb00e1cf500018003a0054c0b300db
:1027780084497800e4c6b30004497800020278006e
:1027880006aa200016437800066a780011aa2000dd
:1027980091407800114298000042eb0044419800b3
:1027a8003441980015002000080037008002eb0033
:1027b80006c7b300864f520004003a0051c0b20069
:1027c8008182fb008502e900cf2ade00050078003f
:1027d8004f0778004f06be004f05be004f04be00ed
:0827e8006f00b10000000600c3
:020000040000fa
:1027f000ec0b000024000000020000003200b000da
:10280000b2ffff000c001000000a0000ff7fff0075
:102810007fff7f000080ff007f008000ff7f0000bf
:1028200080010000ff7fc400ff3c0000000a0000a0
:10283000e400000000000000e04600000800000086
:10284000000000008c0c00000200000000000000ee
:10285000ba0b00003200000002000000000000007f
:10286000000000000002000002010200ff0202005e
:102870000200ff000202010002ff0100000202004c
:10288000020202000202000001ff02000102020037
:10289000ff0002000202ff0002010200000000002f
:1028a000e40a00008e00000000000000860c00001a
:1028b00006000000000000007e0c00000800000080
:1028c000000000008e0c000002000000020000006a
:1028d000010000003e0c00000e000000000000009f
:1028e0002c0c00001200000000000000720b000021
:1028f000480000000200000001000000000000008d
:1029000000000000000000000000000000000000c7
:1029100000000000000000000000000000000000b7
:1029200000000000000000000000000000000000a7
:102930000000000000000000000000000000000097
:102940000000000000000000000000000000000087
:102950000000000000000000680c00000c000000f7
:10296000000000000008000000020000020000005b
:1029700000002100104220006330840040a5500078
:10298000c660e7007008810029914a00a16bb10080
:102990008cc1ad00d1cee100eff131001210020088
:1029a0007332520022b552009442f70072d6620090
:1029b00039931800837bb3005aa3bd00d39cc30096
:1029c000fff3de00e362240043342000040114001e
:1029d000e664c70074a4440085546a00a54bb500a2
:1029e0002885090095eee500cff5ac00c58dd50032
:1029f00053367200261116003006d70076f66600b0
:102a00009556b400465bb7007aa71900973887003f
:102a1000dff7fe00e79dd700bcc7c40048e55800bb
:102a20008668a70078400800611802002823380053
:102a3000ccc9ed00d98ee900aff948008969990049
:102a40000aa92b00b9f55a00d44ab7007a966a0051
:102a5000711a50000a333a00122afd00dbdccb0069
:102a6000bffb9e00eb799b00588b3b00bb1aab0071
:102a7000a66c87007ce44c00c55c22002c033c0063
:102a8000600c41001caeed008ffdec00cdcddd00f3
:102a90002aad0b00bd688d00499d97007eb66e0083
:102aa000d55ef4004e133e00322e51001e700e0013
:102ab0009fffbe00efdddf00fccf1b00bf3aaf0081
:102ac000599f78008f889100a981ca00b1eba100bd
:102ad0000cd12d00c14ef1006fe1800010a100006b
:102ae000c230e300200450002540460070676000bb
:102af000b983980093fba300dab33d00c31cd30055
:102b00007fe35e00f3b102009012f30022d23200a4
:102b100035421400527762005672ea00b5cba50028
:102b2000a8958900856ef5004fe52c00d50dc500f0
:102b3000e234c30024a014008104660074476400da
:102b40002454050044dba700fab7990087b8970022
:102b50005fe77e00f71dc7003cd7d30026f23600a2
:102b60009106b0001657660076761500463456007a
:102b70004cd96d00c90ef9002fe9c80099e9890008
:102b80008ab9ab00a9445800654806007827680058
:102b9000c018e10008823800a3287d00cb5cdb0070
:102ba0003feb1e00fbf98b00d89bbb00ab9abb0030
:102bb000754a54005a376a00167af1000ad01a0092
:102bc000b32a92003a2efd000fed6c00dd4dcd00d2
:102bd000aabd8b00ade89d00c98d26007c076c0066
:102be000645c45004ca23c00832ce0001cc10c003e
:102bf0001fef3e00ff5dcf007cdf9b00afbabf0040
:102c0000d98ff8009f176e00367e55004e745e0017
:102c1000932eb2003ed10e00f01e0000100c0000fa
:102c20001c000000000000000047000080000000c1
:102c3000000000008047000080000000000000004d
:102c40004c0c00000e00000000000000740c00009e
:102c50000a0000000200000000005a00000000000e
:102c600000000000000000005a0c00000e000000f0
:082c700000000000000000005c
:020000040000fa
:102c78000400fa00889fbe008a9fbe00790c0700f6
:102c8800050d0700780e0700a400200034508800c6
:102c9800f90707008660a9009660a80015100700cc
:102ca8001a1007009460a80060a72000030009001c
:102cb8000058eb00646cef000001eb006000b80006
:102cc800c40d0700b10f07006f0d0700e00f50009b
:102cd80002003200042aef00faff370004aaef00ce
:102ce800281007004b0e0700e40020000500200014
:102cf800a4bf9f00b5bf9f000002eb004300200067
:102d08006c81570000002500110020004bf60700d9
:102d18009760a8004ff09700e90e0700c4a92000ab
:102d2800144278000042eb00c5a92000844a7800cc
:102d3800d5a920009542780084427800d0a92000c7
:102d480005487800c4c2200014427800e04f5200c1
:102d5800fcff3200c4a920001442780061426200de
:102d680004003a00c4a920001442780062426200bc
:102d7800f4ff320034518000e00f5200f1ff3200be
:102d8800c4528000d5528000e00f5200e08f5a00f4
:102d9800ecff3200c4a920001442780061426200ae
:102da80004003a00c4a9200014427800704262006e
:102db8000a003200c2a92000124178004311de0047
:102dc80061016100c1c7200091407800a0638000c4
:102dd8008180fb0036090700020037008b40a900fc
:102de8009b40a900186aef00648ca900c4a92000c0
:102df80014427800624262000b0032009c4aa9002b
:102e0800c0c720001040780062c0b3000440bc0076
:102e1800cf91de00000020001100200022f70700fb
:102e2800081007001a003700c4a9200014427800cf
:102e380064426200030032000810070070508800e6
:102e4800010037000e2aef00c4a9200014427800c0
:102e5800614262000e003200c2c7200012417800b1
:102e68000281fb00240320000491b900cf91de0009
:102e7800007d2000010020004df60700605f8800fb
:102e880016c0b30085a12000864a7800648ca8008b
:102e980062bf200012417800a15f8000905f80002f
:102ea800640e0700bc0f0700ee6bef0004a02000c3
:102eb80065092000350298008082eb002502980001
:102ec800960307000005eb0009cab3006b09200050
:102ed800ed0c0700e00f50000b00320084aa200020
:102ee80014427800e04f520001003200730f0700cf
:102ef800e0be20000948780006aaef00e40120009f
:102f0800245088000e003700c262ab000c0032006b
:102f1800880ca80084aa200014427800e04f5200d0
:102f280001003200650f0700ee6bef0004a02000df
:102f38003b0298008082eb0025029800e4ff3700ee
:102f4800880ca900e4be200014427800e04f52002b
:102f580007003200e4be200014427800894f520076
:102f680003003200b50f07004c0f0700430e07009f
:102f780064518000840f5500d5ff32006a518000eb
:102f8800f8be200018447800e4be200014427800ff
:102f9800894f520011003a00e94f5400ccff3a0023
:102fa800780f0700b00d07000042eb0045c620006f
:102fb800844a780084427800e0be20000548780002
:102fc80004a020003b0298008082eb0025029800b4
:102fd800843e2000845f8800bdff3700e4be2000e7
:102fe80014427800e04f520011003a00e64f5400b6
:102ff80007003200ea4f540005003200eb4f54003e
:103008000300320004c5b300844f5400b0ff3a00f7
:1030180008407800eeebb700062aef0004aaef009c
:10302800843e2000845f88000b0f0700a8ff37004c
:10303800e4be200014427800e64f52000d00320032
:10304800e4be200014427800ea4f52000900320022
:10305800e4be200014427800eb4f52000500320015
:10306800e5be20009542780004c5b30084cf520025
:1030780097ff3a00e04f540002003200e94f540035
:1030880007003a000d0f0700ee6bef0004a02000c8
:103098003b0298008082eb00250298008cff3700e5
:1030a800e64f540007003200ea4f54000500320092
:1030b800eb4f54000300320004c5b300844f5400a2
:1030c80083ff3a00530d0700843e2000845f880088
:1030d80088427800e4be2000054a78007cff37006b
:020000040000fa
:1030e8000600fa00889fbe008a1f7800522cef0065
:1030f800b4b82f000408780006a2a9000602a800a8
:1031080004902100746288000602ab0007013a00af
:10311800b80037000402e900030032000602ab00e1
:10312800fcff3a00b30037007462880074ff2f0078
:1031380094628800780037000402e9000300320036
:103148000802ab00fcff3a00b00037007462880048
:1031580064ff2f00946288006f0037000602e900c0
:103168000600320004037800411080008182630069
:10317800faff3a0074628800aa0037007462880077
:1031880054ff2f009462880063003700f40f20007a
:10319800a4bf9f00b4bf9f00c4bf9f00ee8157002b
:1031a8008000eb0002902100f78f2100f8fd2f002e
:1031b8000662a80000000000726288000822ab00c6
:1031c800ce0032009d0037000602e90004003200fc
:1031d800040378000822ab00fbff3200960037009a
:1031e8007462880034ff2f00946288004a00370018
:1031f8000602e90005003200040378000682ab00ed
:10320800fbff3a00746288009d00370074628800f2
:1032180024ff2f00946288003f0037004fba9700c0
:10322800f90f52000e003a00afba9700c82add0025
:103238003fba970005027200f5ff2700850f52007c
:1032480004003a00e4fe2f0094628800502cec0041
:103258001300370004087800502cef0010003700e6
:10326800502cec00f00f520005003a00c4fe2f006d
:103278009462880094d82f0004087800260037004c
:1032880064e82f0004087800d4fe2f0094628800b8
:1032980021003700502cec00f4fe2f0094628800c7
:1032a8008562800044062000848f52007800340034
:1032b800b4fe2f009462880094d82f00900f12005b
:1032c8000500320064e82f00900f1200020032005f
:1032d800a4c82f00040878000662a9000642a800c6
:1032e80004902100746288000642ab007b003a001b
:1032f8006d0037000602e90004003200040378007c
:103308000642ab00fbff3a00660037007462880093
:1033180014ff2f0094628800562cec0007e2a900e5
:10332800c902a90004fe2f00856c2000950a6200de
:10333800cf02a8000004eb0029002000faef2f00bc
:10334800110009000904d800618260004822dd00ec
:1033580056168000860265008502720055168800a0
:10336800800c200001002000d30d07000804e800ad
:10337800f30f5400f2ff3a0007e2a80000192000fa
:1033880001002000cc0d070004fe2f006120200062
:10339800910862000642a800049021007462880027
:1033a8000642ab0049003a00420037000602e90035
:1033b80004003200040378000642ab00fbff3a0029
:1033c8003b0037007462880004ff2f009462880075
:1033d80016c0b30045c52000864a7800ce03070012
:1033e800906280004f0578004f04be000080fa000c
:1033f80000000600340d20001410880004902100fd
:10340800746288000802ab0045003a00049021006d
:1034180074628800040024004110800001026200e8
:103428003a003a00040028004510800005026200b6
:1034380056ff320097ff370074628800061080003c
:1034480086297800010278000410a20004f0a70081
:103458000402ea000402e9004f22de004522dd00f2
:1034680036108000860264008502720035108800dc
:103478000682a800726288000682ab001b003a0030
:103488008100e800e38f500049ff3a0063ff3700ee
:103498000662a9000642a800049021007462880010
:1034a80091ff37007462880090628000cdff37007a
:1034b8007462880000192000010020007e0d0700ba
:1034c8009503070090628000c6ff3700f48f210043
:1034d8007462880004037800b7ff3700f48f210076
:1034e800746288000403780085ff370077628800db
:1034f800070278000703780040ff370077628800ea
:10350800070278000703780032ff3700f48f2100a4
:1035180074628800040378000700240012ff370053
:10352800f48f21007462880005ff3700f48f2100b2
:0835380074628800f9fe3700ff
:020000040000fa
:10354000889fbe0080047800c4a92000144278003f
:10355000624262000000eb0000013a0084a12000fa
:1035600014427800e04f5200fc003200c663800035
:103570006333b90024002000110009000403d800bf
:103580000004780084a1200014427800e24f520029
:103590000f003c00f4c5200014427800e04f5200b8
:1035a0000b003200d5c72000954278000042eb00a6
:1035b00084cf52000100320034c0b300844278004e
:1035c00081a1200085487800648ca900310e070095
:1035d00084a1200014427800e14f52001c003a0000
:1035e00055518000c65680002400200011000900bb
:1035f0008402d800860f5000030034000603e80060
:10360000c656880012003700d4568000840f54003c
:103610000a003400855680008502e800855688003f
:10362000665f8000868f520009003400d02aef00c8
:103630000402e800d45688000500370084f82f0003
:10364000746088000c2cef0020c0b30018eab700ab
:1036500084a1200014427800e24f520017003a0083
:10366000d45680000804ea00840f54000a003d008c
:10367000755680008502e80075568800665f8000f8
:10368000868f52000d003400ce2aef000402e900bc
:10369000d4568800090037000004eb00c8568800a3
:1036a000880c7800644ca8008a8ca800b80c07002d
:1036b0000842780081a120008448780084a120007d
:1036c00014427800e34f520012003a00da0af80080
:1036d0000a0cf900c456800055518000850f520035
:1036e00003003d000402e800c456880009003700ca
:1036f000645680000402e8006456880005712200c8
:10370000850f52000300340046c0b30085a120009d
:10371000864a780084a1200014427800e44f5200c9
:1037200014003a00506080000e0cb400d05688009f
:10373000945680000402e800945688000553270040
:10374000850f52000b003600d4628000c0638000f9
:10375000250f800000abb90011000900443bd800e0
:10376000b0568800d22aef0056c0b30085a12000d1
:10377000864a780084a1200014427800e54f520068
:1037800069003a00506080000c0cb400d0568800ec
:10379000945680000402e8009456880005a62e0086
:1037a000850f520060003600d82aef00d4628000f6
:1037b000c0638000250f800000a9b9001100090036
:1037c0004419d80000017800a2568800b65680003f
:1037d00006025100350b2000850f52000300340013
:1037e0008416b100850f5200fdff3c00c5f42f0088
:1037f000850f520003003d008416b000850f520073
:10380000fdff35008403780007f0a7008703ea0076
:10381000a5052000858f53002e00340025002000d0
:10382000110009000502d8000002780006024200db
:1038300075162000850f5200030034008416b10075
:10384000850f5200fdff3c00e00f520002003d00da
:103850008416b000feff3300065388001253880020
:1038600055608000a505b000706080000c0cb400ad
:1038700026002000110009000600d80080824200c6
:1038800004825200b4638800b5638000741620007f
:10389000848f52000500340080e92f00762cb4009c
:1038a000b5638000848f5200fbff3c00b46380004e
:1038b000e00f520005003d0080162000762cb40079
:1038c000b4638000e00f5200fbff3500186aef0080
:1038d0001500370064608000e00f520009003200dc
:1038e0000002eb006460880085f82f007560880096
:1038f0009456880045c0b30081a120008548780017
:10390000090037000004eb00c8568800880c7800d6
:10391000648ca90064aca8008a8ca8001c0c070069
:103920000840780018eab700c1568000810c780082
:10393000d056800074162000840f5000030034001d
:103940008016b100840f5000fdff3c00e00f5000d6
:1039500002003d008016b000feff33004f04be00a1
:04396000000006005d
:020000040000fa
:103964000003be003064ab000b0032000480200072
:103974008021800000026200070032003264ab0044
:1039840005003200048020009121800001026200c1
:103994000080eb00e1003a003064ab0038003a00ec
:1039a40003027800824078000601be000070240003
:1039b4006405070044c12000000aeb0014029000d3
:1039c400e20f52000d003c00c5608000e28f5200ff
:1039d4000a003c00d6608000e20f530007003c0060
:1039e40047c120000402e800940398008502e8001f
:1039f400a50398000603e800b603980044c120001c
:103a040014437800e3426300e3826200c6ff2f00a0
:103a140080218000800363008783720087218800ef
:103a2400a4439000e3836300c83bdd00f5cf2f007f
:103a34008121800001806200008073008021880061
:103a4400c4439000e383630090218000000363007b
:103a5400068373009621880064429000630262002a
:103a64004822dd009121800081826200850272007b
:103a7400952188003064a8000000eb00a7003700ff
:103a840004802000852180000502620036003a008f
:103a940003027800824078000601be000071240011
:103aa40028050700162cef00a4608000e20f5200e6
:103ab4000c003c00c5608000e28f520009003c000d
:103ac400d6608000e20f530006003c0047c120008e
:103ad400840be8008502e800a50398000603e800cb
:103ae400b603980044c1200014437800e342630005
:103af400e3826200c6ff2f00802180008003630000
:103b04008783720087218800a4439000e3836300c5
:103b1400c83bdd00f5cf2f008121800001806200c9
:103b24000080730080218800c4439000e383630015
:103b340090218000000363000683730096218800af
:103b440064429000630262004822dd0091218000fb
:103b54008182620085027200952188003164a80088
:103b64000000eb006d0037003264ab0036003a0011
:103b740003027800824078000601be00007224002f
:103b8400f0040700182cef00a4608000e20f52003c
:103b94000c003c00b5608000e28f520009003c003c
:103ba400d6608000e20f530006003c0047c12000ad
:103bb400840be8008502e800950398000603e800fa
:103bc400b603980044c1200014437800e342630024
:103bd400e3826200c6ff2f0080218000800363001f
:103be4008783720087218800a4439000e3836300e5
:103bf400c83bdd00f5cf2f008121800001806200e9
:103c04000080730080218800c4439000e383630034
:103c140090218000000363000683730096218800ce
:103c240064429000630262004822dd00912180001a
:103c34008182620085027200952188003264a800a6
:103c44000000eb0035003700030278008240780062
:103c54000601be0000732400ba0407001a2cef000a
:103c6400a4608000e20f52000c003c00b5608000ac
:103c7400e28f520009003c00c6608000e20f53004e
:103c840006003c0047c12000840be8008502e800e0
:103c9400950398000603e800a603980044c1200099
:103ca40014437800e3426300e3826200c6ff2f00fe
:103cb400802180008003630087837200872188004d
:103cc400a4439000e3836300c83bdd00f5cf2f00dd
:103cd40081218000018062000080730080218800bf
:103ce400c4439000e38363009021800000036300d9
:103cf4000683730096218800644290006302620088
:103d04004822dd00912180008182620085027200d8
:103d1400952188003364a8000000eb000000060031
:020000040000fa
:103d2400881f780054538000c0c6200004487800df
:103d34004822de0084437800d6c62000074b780072
:103d440064508000e0c62000044878004822de0069
:103d540084437800f6c62000074b78004450800066
:103d64005550800000c72000044878004823de0036
:103d74000640780071ecb70026c72000054b780098
:103d8400482ade008442780030c7200005487800c5
:103d940068ccbf000080fb004400dd000080a00070
:103da400cf80de00c3c6200082c0b300ecfe070053
:103db400c4a92000144278000444b2003600320042
:103dc40068ccbf000080fb00440620000482b900d8
:103dd400451f2000848242005463800018c0b30051
:103de400ea0f5200040034006a835200860f520026
:103df40001003d000044eb000402e8005463880025
:103e0400848f52004e003c006a2cef00b4638000a3
:103e1400c6c62000044b78004822de000443780024
:103e2400d5c62000864a7800240f8000e7c620000b
:103e3400844b78004822de0084437800f6c62000d4
:103e4400074b78000453800005c72000844a78009b
:103e54004822de008442780017c72000854b780092
:103e64001453800026c72000044b78004822de004b
:103e74000443780035c72000864a78004400dd00fa
:103e84009010b300cf80de00c3c6200082c0b30010
:103e9400b3fe07002a003700c4a9200014427800aa
:103ea4000442b20028003200e5be200095427800aa
:103eb40004cbb30084cf52002300320014c6200088
:103ec4001442780045c620009542780046c620007a
:103ed400164378000603d00068036300e1826200a1
:103ee400c22add008542730004424200854272000a
:103ef40014638000c7c62000844b78004822de008b
:103f040084437800d6c62000074b78000542780029
:103f1400e0c620000448780068ccbf000080fb00a5
:103f24004400dd009010b300cf80de00c3c6200043
:103f340032c0b3008afe0700616cef000200370054
:103f4400e04f540044003a0044a120001442780099
:103f5400e04f5200170032000044eb00c5c62000b9
:103f6400884a7800d7c62000884b780074508000b7
:103f7400e5c62000844a78004822de000440780028
:103f84006fecb70068ccbf000080fb004400dd008c
:103f9400c010b300cf80de00c3c6200042c0b3000f
:103fa4006ffe07008842780044a12000054a78008b
:103fb40029003700e6be200016437800c7c620005b
:103fc400864b780044c6200014427800d5c62000f1
:103fd400844a780044538000e6c62000044b7800ed
:103fe4004822de0084427800f0c6200005487800ac
:103ff40086c820001643780007c72000864b780047
:1040040094c820001442780015c72000844a780020
:10401400a6c820001643780027c72000864b7800e6
:10402400b4c820001442780035c72000844a7800c0
:1040340068ccbf000080fb004400dd003010b300fa
:10404400cf80de00c3c6200082c0b30044fe070058
:10405400640ca900644ca9004f0478000000060019
:020000040000fa
:104064000400fa00889fbe008a9fbe008c9fbe0099
:1040740021e3a800094020006066b8008cbf9f00bf
:104084009dbf9f000afe2f00883e20008132200041
:10409400910865002003a9002023a8004006200001
:1040a40001002000850a07002023a90008027800e7
:1040b400020037000402e900900032002003ab0044
:1040c400fcff32000b1880004519800005026500d2
:1040d4000400a000441988002003a9002023a8009c
:1040e4004006200001002000740a07002023a900d4
:1040f4000002eb00030037000402e800880f5200be
:10410400800032002003ab00fbff3200615ab9008b
:104114000fbb97009fbb97000603420087834a00aa
:1041240086bf9f0097bf9f0004188000cfa2de00c7
:104134000c0642008d864a008904e900d3ff3a0048
:1041440000e02f00f1ff2f00e00f5300e08f5b0031
:10415400020035000020200001002000745380007c
:104164000fbb97009fbb97000000430081804b006a
:1041740002003b00f03fb0000180b000c60bdd0040
:104184004a00de0000807300ca88de00cfa2de0091
:104194000000520081805a0004e02f00f5ff2f0038
:1041a400e00f5600e08f5e0002003500042020007e
:1041b40005002000965380000406460085864e00c4
:1041c40002003b00fc3fb0000d80b000466add00f9
:1041d4004a66de000c067200caeede00cfb3de00d3
:1041e4000c0353008d835b00e00f5000e08f5800f8
:1041f40002003d0060001000e08018000004be00d2
:10420400e00f5300e08f5b0002003d0060031300e9
:10421400e0831b000602be00880f5300898f5b00f9
:10422400010034000802be00840678000602be00c5
:10423400880f5300898f5b0001003d000802be0017
:1042440004067800f2ff2f00f3ff27001500240076
:1042540088bf9f0099bf9f00020037000801be007d
:10426400840278000502e90000002000010021001a
:10427400110009004408d800000478000ca5b90016
:104284000dc4b9000804550089845d0002003b0098
:1042940060041400e0841c00880f5100898f5900c9
:1042a400eeff3d000fbc97009fbc9700020020006a
:1042b40003002100110009004519d800000278000c
:1042c400860f5400878f5c0002003d0004017800d3
:1042d400010037000501780062538800860f5400fe
:1042e400878f5c0001003c0005027800a45388001d
:1042f40021e3a9000000eb00030037000080eb007d
:10430400010037000080eb004f06be004f05be00e1
:0c4314004f04be000080fa00000006000c
:020000040000fa
:10432000522cef0006a2a9000602a800049021006a
:10433000746288000602ab0093003a004e0037001a
:104340000402e900030032000602ab00fcff3a0061
:10435000490037007462880052acef004400370017
:104360000402e900030032000802ab00fcff3a003f
:104370004700370074628800e4ff2f0094628800d1
:104380003b0037000402e9000400320047108000bf
:1043900087026300fbff3a00430037007462880025
:1043a000d4ff2f0094628800310037000402e90036
:1043b000040032004710800087026300fbff3a00d0
:1043c0003f00370074628800c4ff2f0094628800a9
:1043d000270037000402e900030032000802ab00a6
:1043e000fcff3a003c00370074628800b4ff2f00e5
:1043f000946288001e0037000402e90004003200c5
:104400004710800087026300fbff3a003800370046
:1044100074628800a4ff2f009462880014003700a3
:104420000402e900040032004710800087026300a4
:10443000fbff3a00340037007462880094ff2f00bd
:10444000946288000a0037000602e9000500320085
:10445000040378000642ab00fbff3a007462880058
:10446000030037007462880084ff2f009462880084
:104470009062800000000600240d200014108800c7
:1044800004902100746288000802ab003b003a00ef
:10449000049021007462880004002400451080000c
:1044a0000502620031003a00049021007462880025
:1044b00004002800471080000702620027003a002d
:1044c0009401200014108800049021007462880078
:1044d0000802ab001e003a000490210074628800bc
:1044e00004002400451080000502620014003a0018
:1044f00004902100746288000400280047108000a6
:10450000070262000a003a000662a9000642a800fb
:1045100004902100746288000642ab00d4ff320090
:10452000f48f21007462880004037800c9ff37000b
:10453000f48f21007462880006002800baff37005b
:10454000f48f21007462880006002400acff37005d
:10455000f48f210074628800a0ff3700f48f2100df
:10456000746288000600280092ff3700f48f210053
:10457000746288000600240084ff3700f48f210055
:104580007462880078ff3700f48f2100746288001d
:044590006dff370084
:020000040000fa
:104594000800fa00889fbe008a9fbe008c9fbe0060
:1045a4000002eb00745388009453880021e3a800b0
:1045b4000a4020006000b80080bf9f0091bf9f00a8
:1045c400e0b79f00f1b79f0009fe2f00883e20004e
:1045d40085322000958a64002003a9002023a800c6
:1045e4004006200001002000340907002023a90010
:1045f4000002eb00030037000402e800880f5200b9
:10460400650032002003ab00fbff32000b18800072
:1046140046198000068264000400a0004419880042
:104624002003a9002023a800400620000100200048
:10463400220907002023a90008027800020037009d
:104644000402e900560032002003ab00fcff3200f4
:104654000c18800047198000078264000410a00031
:10466400441988002003a9002023a8004006200044
:1046740001002000110907002023a9000802780086
:10468400020037000402e900470032002003ab00b7
:10469400fcff320004188000001880008009070025
:1046a40074072000840f500041003600615ab9009d
:1046b4006fb09700ffb097000000420081804a006d
:1046c400e0b79f00f1b79f00cfe6de000fba970076
:1046d4009fba97000402460085824e0084bf9f0063
:1046e40095bf9f000a05e900b9ff3a0004e02f00d6
:1046f400f5ff2f00e00f5000e08f58000200350056
:1047040004202000050020006fb39700ffb397003a
:104714000402430085824b0002003b00f43fb000da
:104724000580b000caabde004628dd004a23de0067
:104734000603700004e02f00f5ff2f000fb8970068
:104744009fb89700e00f5000e08f5800020035003a
:104754000420200005002000765388000fbb97003a
:104764009fbb97000402430085824b0002003b007c
:10477400f43fb0000580b000c62bdd004a22de0005
:1047840004827300caaade009453880021e3a900be
:104794000000eb00070037000080eb000500370045
:1047a4000080eb00030037000080eb0001003700bd
:1047b400e0ff2f004f06be004f05be004f04be00b1
:0847c4000080fa00000006006d
:020000040000fa
:1047cc003600f800809fbe00829fbe00849fbe0012
:1047dc00869fbe00889fbe008a9fbe008c9fbe0035
:1047ec008e1f7800ea8747008700a9001c00200074
:1047fc000e7824004a208000fa03b2001d0020002d
:10480c008a6edd00052180000d8262004a003200b4
:10481c004455dd000e054500ca459000ef85650046
:10482c00e88f5500020034008b8ca8008b00200010
:10483c009a42780061c26200230032005a44900010
:10484c000884fb004244de000884fb0009002000c1
:10485c000400200005002800040474008584740002
:10486c002a4290000482fb003a4390006f036300dd
:10487c004833dd000603720007002000463add00d5
:10488c00ca32de00850272004632dd000404740078
:10489c00858474001a4278008482fb00c22ade00f0
:1048ac001a4290007f0262004622dd0004827200f0
:1048bc0005002000c222dd00040020000404740066
:1048cc0085847400080037009a4278000582fb004a
:1048dc004222de001a4490007f0464004644dd004e
:1048ec000804720009002000e60045000b01780066
:1048fc0068805700d5f007008d86ea000d218800ee
:10490c005a42900062426200020032008b4ca800b6
:10491c0005003700e88157000b4178000800be0005
:10492c0094608000040001000c06e800e60f5600bd
:10493c00b0ff3a0003003700e50f560001003a00c3
:10494c00890ca800af00b1004f0778004f06be00dd
:10495c004f05be004f04be004f03be004f02be0009
:10496c004f01be004f00be003600f90000400600ab
:020000040000fa
:10497c00889fbe000044eb0009f02300e4c7200030
:10498c00084a7800d421ef002064800065004000c4
:10499c00cf80de0047080700820cf800da01f9002e
:1049ac00da01f800d801f900d801f800d601f900b5
:1049bc00c1e1a8008be0a9009be0a80074002000d6
:1049cc00840e880014002000a40e8800e4c7200088
:1049dc0014427800e04f520039003a002064800005
:1049ec00a00fb000cf80de0032080700e4c7200023
:1049fc0014427800e04f520031003a00540020007d
:104a0c00a40e8800e4c7200014427800e04f520046
:104a1c002b003a0020648000a00fb000cf80de0095
:104a2c0024080700e4c7200014427800e04f52002d
:104a3c0023003a0054012000a40e8800e4c7200093
:104a4c0014427800e04f52001d003a0020648000b0
:104a5c00a00fb000cf80de0016080700e4c72000ce
:104a6c0014427800e04f520015003a00d421ef00b8
:104a7c00e4c7200014427800e04f520010003a00c6
:104a8c002064800065004000cf80de00090807002c
:104a9c00e4c7200014427800e04f520008003a00ae
:104aac00a90e8800e4c7200014427800e04f5200a1
:104abc0003003a008e6cef0010c0b3000b003700ff
:104acc00e4c82000084a7800f4c72000144278009b
:104adc00e04f520004003200803e20000100200014
:104aec00f4070700a5ff37000040eb004f04be00a1
:044afc0000000600b0
:020000040000fa
:104b0000889fbe0000047800810378000464800060
:104b1000880f52000b003d0004bab90011000900d3
:104b2000482ad80080037800046480000491b9000a
:104b3000110009004819d800000178000404780029
:104b40000e0037008402ea00850f54000b003d0080
:104b50008802ea0004bbb90011000900453bd800f7
:104b600080037800046480000491b90011000900fa
:104b70004519d800000178000404ea0004648000ac
:104b8000848f53000b00340004c2b90011000900e7
:104b9000472ad80000047800046480000491b9001a
:104ba000110009004719d80000017800840378003b
:104bb0000e0037008402ea00858f53000b003d0091
:104bc0008702ea0004c4b90011000900454cd8006e
:104bd00000047800046480000491b9001100090009
:104be0004519d800000178008403ea0004648000bd
:104bf000840f51000b00340004c2b90011000900f9
:104c0000422ad800000478000464800004bbb90084
:104c100011000900423bd8008003780004017800ad
:104c20000e0037008402ea00850f51000b003d00a2
:104c30000201ea0004c2b90011000900422ad800aa
:104c4000000478000464800004bbb900110009006e
:104c5000423bd800800378000401ea00146480001d
:104c600004004400b00e880084804300c10e880018
:104c700004014100d20e88004f04be00000006006f
:020000040000fa
:104c80000002eb00240588002505800005c0a00077
:104c900005d0a10005e0a1002505880034058800a5
:104ca000350580000500a1006500b30035058800ca
:104cb00044058800450580000580a0000590a100fe
:104cc00005a0a00045058800450580000540a0001e
:104cd0000550a1000560a00045058800450580003d
:104ce0000500a0000510a1000520a00045058800d2
:104cf00054058800f5cf2f0056058000868262009b
:104d000005a0a00055058800550580000540a100bc
:104d10000506b30055058800640588006505800018
:104d200005c0a00005d0a00005e0a0006505880032
:104d30007405880084058800c5ff2f008605800063
:104d4000868262000520a00085058800f5ff2c0002
:104d5000860580008682620005e0a0008505880047
:104d600094058800a4058800f58f2f00460b2000cd
:104d7000168b6200f5ff2c00a6058000868262007b
:104d800005e0a000a5058800b4058800b5058000f1
:104d90000500a0000510a1000520a000b5058800b1
:104da000d405880004068800050680000530b3009d
:104db00005a0a100050688001406880015068000dd
:104dc00005c0a00005d0a00005e0a00015068800e1
:104dd00024068800340688004406880081e0a90083
:044de00000000600c9
:020000040000fa
:104de400889fbe008a9fbe008c9fbe000082eb009d
:104df400e5608000ef8f52004d003e00faff2f0067
:104e0400fbff29000383650007002000c036dd0096
:104e14000c0020006113b800060676008786760031
:104e24000182650005002000c024dd000800200088
:104e34006102b80004047400858474008a0f56006b
:104e44008b8f5e002e0032001eccbf008082fb00e0
:104e54004240a900120034000661800017618000fe
:104e640004c220000005eb008c0f53008d8f5b0003
:104e740005003a00240037005403be008c0f530091
:104e84008d8f5b00040032000a05e800850f550091
:104e9400f9ff350002003700e10f45001b003a001e
:104ea400e4ff2f00e34f500021003200c22add004e
:104eb40004c22000050242000c8abe000045e8003e
:104ec400e4c120000a4a78000a85fb00cf68de00ae
:104ed400f4ff21000d02620005002000c021dd0066
:104ee400020020006162b800040171008581710034
:104ef4004f4ade000a007800b203070003003700bf
:104f04003a002000010037000005eb00e06080005b
:104f14000002e800e4608800cf48de008a027800de
:104f2400f40020000801be00db0207000002eb00d1
:104f3400040078004f06be004f05be004f04be00bb
:044f44000000060063
:020000040000fa
:104f4800881f7800e00f5100e08f590023003d00d2
:104f5800f5c3b3008543610025002000853bdd00d3
:104f68005043900063436300074373005640980022
:104f7800c61bde004a1cdd004613de000603740073
:104f8800f8ff200006036400264098004833de003e
:104f98003044900007cfb3008743640006c3730012
:104fa800364098004219de00f67f200002016300b7
:104fb80002037800f603b2008532dd004611de00f8
:104fc8009043900006ceb30006c36300024173000d
:104fd8001240980063c8720017003700f57f200060
:104fe8000281620002037800f603b2002500200067
:104ff8000533dd004611de009043900005ceb30076
:1050080085c2630002c1720012409800d04290002d
:10501800e3c26200554098008042eb0025409800aa
:10502800b043900005cfb30085c2630035409800b7
:10503800c5cfb30005486300d04290000510a10019
:10504800554098006fc36000c043900005cfb3007f
:1050580085c2630086c27200454098006600400021
:105068000181fb0084007800f9ee07004f04780006
:04507800000006002e
:020000040000fa
:10507c0080427800004aeb000000eb00efcf5200ba
:10508c0042003a00843e2000845f8800d4c2200095
:10509c00144278000482fb00840242000281fb006f
:1050ac00828f520039003c008402e9008582420064
:1050bc0061c37a000683fb0085804000114290009a
:1050cc004822dd0004027300e5be20009542780002
:1050dc00e6cf52001400320005003e00e0cf520033
:1050ec0027003200e2cf520026003a0008003700b9
:1050fc00eacf520023003900ebcf520004003600f7
:10510c0006c5b30086cf52001e003a0012003700cd
:10511c0005002800850f520001003a0014002800f9
:10512c00145588001700370035518000850f520048
:10513c00020034003451800005003700260aee00ce
:10514c00800f520002003d00260aee00000278009b
:10515c00045588000b00370005c02900850f52004c
:10516c0001003d000502780005402600850f520025
:10517c000100340005027800f45488000100370067
:10518c0023050700e4fa07001000200000000600c9
:020000040000fa
:10519c00c4a92000144278006142620004003a0065
:1051ac00c4a9200014427800704262003200320020
:1051bc00c6010700055780000057880084a1200015
:1051cc0014427800e04f520005003200082aef002c
:1051dc000a2aef000000eb00605088003200370014
:1051ec00465080005750800005005000cf80de00f4
:1051fc000002430081824b004450880055508800c7
:10520c00145780000402e800145788000040eb009b
:10521c00f40f520024003a00e22aef00665080009e
:10522c004050800051508000e4568000f5568000bc
:10523c0004025000858258000603e800cfb3de005c
:10524c000402430085824b004f2bde000602420015
:10525c00e0824a008582d1000482d3006450880029
:10526c004450800055508000e4568800f556880064
:10527c0010c0b3000c003700c4a920001442780001
:10528c00624262000040eb00804f52000600320088
:10529c00da0607004050880051508800bf03070011
:0c52ac00605088000040eb00000006008d
:020000040000fa
:1052b800889fbe000104780082427800e4c520007f
:1052c800054a7800f48f2f00051e2000950a620019
:1052d800e1e1a900e1a1a900e00f500004003d00b0
:1052e800e0e1a8000000ea00d06288000200370070
:1052f800e0e1a900d0628800d4628000d063800019
:10530800cf80de00cfa2de00048bb90000a9b9006f
:10531800060341000400b8008100430002e12000b8
:105328000300200022ed0700e062880084162000b8
:1053380004c4b900c8638800e0c1a900e301a8005b
:10534800e2e1a800140f80000440a1000450a0006e
:105358000460a100140f8800140f80000490a000be
:1053680004a0a000140f8800e421ef008b40a900de
:10537800e041a800d46280000402e900340f8800ec
:10538800e4c5200014427800e04f520007003200c4
:10539800040f80000480a1000490a00004a0a000d5
:1053a800040f88009b40a80005003700040f800008
:1053b8000430b30004a0a000040f88009b40a9009b
:0853c8004f04be0000000600c6
:020000040000fa
:1053d000881f7800581680005516800054168000eb
:1053e0004922de00614262000804d10064046400c6
:1053f000c72ade00e282620005447400044474009f
:1054000002003200e74f540006003a000044eb006f
:10541000a4ae2000084a7800888ca8005c0507002c
:105420002a003700eacabf00884f50002600320029
:1054300072c0b3000440bc000882fb0004004100bd
:10544000a4bb200064427800e24f520006003a00fc
:105450000044eb00a6ae2000084b780088cca800e2
:105460004b05070019003700e14f520009003a00d0
:1054700024578000cfa2de003657800047578000b7
:105480000603420087834a00365788004757880042
:105490000a003700e14f420008003a00245780001c
:1054a000cfa2de0036578000475780000402530029
:1054b00085825b003457880045578800a7ae2000de
:1054c000884b7800010037000044780008407800dd
:0854d0004f0478000000060003
:020000040000fa
:1054d8003600f800809fbe00829fbe00849fbe00f9
:1054e800869fbe00880407007d000700eb030700c5
:1054f800c4a9200014427800644262002f003200e0
:105508000400280035108000050262002b003200dc
:10551800f46180000402e800f4618800f40f52008e
:10552800260034003e2cef00e0a02000ecf6070037
:10553800f50f400007003a0094c820001442780094
:10554800e04f52000300350089eca8000e05070063
:105558000d003700e00f50000b003a007550800036
:1055680084508000848f520002003400122aec001c
:10557800050037007550800084508000848f5200e9
:1055880001003d00122aef009550800044062000db
:10559800848f52000600340094c82000144278001a
:1055a8000444b20002003a0089cca800f6040700bf
:1055b80015c0b30046a12000054b78008460a900ff
:1055c8004f03be004f02be004f01be004f00be0099
:0855d8003600f9000040060056
:020000040000fa
:1055e000881f78008a9fbe000004a8008082fb000c
:1055f00005834200060343000744200007034300dd
:105600008683e800e0cf5000080032006384610028
:1056100068044400421dde000b002000c550dd0080
:10562000010b4400820b7800030037004511dd00b8
:10563000020b7800800beb0087412000064220001f
:10564000e34f50000f003600e44050002642200097
:10565000e3cf50000b003600e8405000a741200087
:1056600046422000e3cf5000060036006c40500058
:1056700066422000e34f5000020036008003eb003a
:1056800007037800638062004200dd00f100200023
:105690000008dd008080ea0096806000008b7000ca
:1056a000e24f520009003e00678362000603430098
:1056b000300020000600dd000080ea0017006000d6
:1056c0000482fb000623dd00860b70001000200022
:1056d0000500dd001424b7000004a9004f05be003a
:0856e0004f04780000000600f1
:020000040000fa
:1056e800346280004562800061024200e0824a0024
:1056f8003462880045628800146280002562800058
:1057080061034200e0834a0016628800276288002d
:1057180034508000e00f520003003200e10f4200d5
:1057280006003a00030037001400200014508800d7
:1057380010003700022aef000e00370034508000b6
:1057480005002000840f5300858f5b000900350099
:10575800422cef00442cef0004a02000940290009b
:1057680005f0a7008502ea008502e900cf2ade00dd
:105778001502980024508000e00f52000300320008
:10578800e10f420006003a00030037001400200031
:105798000450880012003700002aef00100037007c
:1057a8002650800007002000346280004562800097
:1057b800840f5300858f5b0009003c00462cef00e6
:1057c800482cef0004a020009402780005f0a70000
:1057d8008502ea008502e900cf2ade00050a780082
:0457e80000000600b7
:020000040000fa
:1057ec000a00fa00889fbe008a9fbe000004be001b
:1057fc0082407800030078000042eb00e4f79f0041
:10580c000a702000080565000b002000485add00d6
:10581c004855de000a057200c85dde00e14f5500f8
:10582c000800320003003900e74f550011003a0020
:10583c000c003700ea8157007281570077f107009e
:10584c000d003700ef4264006a825700f281570066
:10585c0001417800800078000540780004fe0700c4
:10586c0005003700ea815700728157002b020700b0
:10587c00010037000000eb00e00f50000f00320079
:10588c00eff09700e0cf50000c0032006705650088
:10589c004855dd00d4c22000144278000482fb007d
:1058ac004422dd000a057200080fb2004440de00fd
:1058bc0000007500728157002b0507004f05be00d4
:0c58cc004f04be000080fa00000006003f
:020000040000fa
:1058d800240f8000e401f800620cf900e5c52000ff
:1058e80095427800e0cf52002d003200f5c5200027
:1058f80095427800e0cf52002900320005002100cf
:10590800010f80008182620004003a0005c6200071
:1059180095427800e0cf52000f00320035638000d6
:10592800e6628000868f520005003400d76280004e
:1059380006835300868f520001003d00640ca800c6
:1059480005c6200095427800e0cf520013003200cf
:10595800606cef0011003700f00f420004003500c2
:10596800d5628000f0824200850f52000b0034009f
:10597800644ca800e00f520002003d00d562800090
:1059880005024200d5628000850f520002003500f2
:10599800d562800005025200240f88003463880015
:1059a800d56280006120b900c003dd000600200038
:0c59b80011000900453bd800000006006b
:020000040000fa
:1059c400042080000480a0000490a10004a0a10091
:1059d40004208800060e2000050220000720800015
:1059e40007026300850f5200fcff3a00f48f2f007a
